:400000000010002011000000DD060000DD06000080B500AF00F066FB80B584B000AF021CFB1D1A70224A3B1C0B3312781A70214A3B1C0A3312781A701F4B1B68013BFB6000
:400040001AE01E4B1868391C0B31FA68131C5B009B18C31801331B780B70184B1868391C0A31FA68131C5B009B18C31802331B780B70FB68013BFB60FB68002B0ADB0F4B59
:400080001968FA68131C5B009B185B5CFA1D12789A42D6D90A4B3A1C0B3212781A60094B3A1C0A3212781A60BD4604B080BDC046CCF1FF0FCDF1FF0F60100000CC0000207A
:4000C0001CFF0B4020FF0B4080B500AF174B174A12688021C9020A431A602820FFF79CFF134B144A1278D2B21A60052000F012FC114B2B221A60114B10221A60104B2022D4
:400100001A60104B802212061A600F4B802212061A60064B8022D2021A600C4B0C4A1A600C4B0D4A1A60BD4680BDC04600010B4028FF0B40F5F1FF0F2CFF0B4034020240B2
:400140003C02024008010B4004010B400000024007000080400002400100008080B586B000AF72B65E4B01221A703B1C173300221A7026E03B1C17331A78131C5B009B1834
:400180005B00584A9B183B613B691A78597809020A43997809040A43DB781B0613431A1C3B6919795B791B020B439BB2101C191C00F01CFB3B1C17333A1C17321278013202
:4001C0001A703B1C17331B78022BD3D93B1C173300221A7038E03B1C17331A78131C9B009B185B00404A9B18FB60FB681A78597809020A43997809040A43DB781B0613430D
:40020000BB60FB681A79597909020A43997909040A43DB791B0613437B60BA1CFB68197A5B7A1B020B431380BB1C1B88B9687A68081C111C1A1C00F0E9FA3B1C17333A1C04
:400240001732127801321A703B1C17331B78002BC1D0264A264B101C191C00F0E9FA254BC02292041A60244B244A1A60244B40221A60244BC02252031A60234B50221A606B
:40028000224B234A1A60234B992212041A60224BC02292051A60214B992212041A60204BC02292051A601F4B05221A601E4B06221A601E4B1D4A1278D2B202210A43D2B2D4
:4002C0001A701A4B194A1278D2B206210A43D2B21A70FFF7F9FE00F0EBFABD4606B080BD1C700F405C0D0000700D00007C0D0000A40D0000080001400C00014000EE0303DF
:4003000000020440080204400003044008030440806D180020500F4028500F4030500F4038500F402000004000800F4000700F4010B5064C2378002B07D10548002802D078
:40034000044800E000BF0121217010BDE000002000000000580D000008B5084B002B03D00748084900E000BF07480168002903D0064A002A00D0904708BDC04600000000C0
:40038000580D0000E4000020C800002000000000B0B582B000AF021C3960FB1D1A70FB1D1B787F2B32D93049FB1D1B781A1C0F231340083B98082C4AFB1D1B781C1C0F23A0
:4003C0002340083B9B0806339B00D3185B68FA1D1278141C03222240D200FF24251C95402A1CD2431A403B689C01FF231C40FB1D1B781D1C03232B40DB00251C9D402B1CA7
:400400001A43831D9B00CB185A6029E0174BFA1D127852B292081549F81D007840B28008C03080004158F81D0078041C03202040C000FF24251C8540281CC0430840396826
:400440008C01FF210C40F91D09780D1C03212940C900251C8D40291C0143C0329200D150BD4602B0B0BDC04600ED00E000E100E080B582B000AF78607B685A1E0C4B9A42FF
:4004800001D9012310E00B4B7A68013A5A6001235B42181C0321FFF77BFF064B00229A60044B07221A600023181CBD4602B080BDFFFFFF0010E000E080B500AF104B181CB0
:4004C00000F092FA0F4B181C00F0E8FA0E4B0F20191C00F0F1F90D4B181CFFF7C9FF031C002B00D0FEE700F07BFB62B6C04600F025FB031C002BFAD000F03AFBFEE7C04688
:400500003D0500003505000011050000409C000080B500AF064B1B685A1C054B1A60044B1A680F23134001D100F04EF8BD4680BD0004002080B500AFBD4680BD80B500AF8B
:40054000034B1B68002B01D000F004F8BD4680BD0404002080B582B000AF194B1B680333FF2B10D8164B1A68131C5B009B18154A9B18181C092100F0FFF9114B1B68DA1CC8
:400580000F4B1A6019E00E4B1B68DAB2FB1D52421A700B4B1A68131C5B009B18094A9A18FB1D1B78191C4900CB18DBB2101C191C00F0E2F9024B00221A60BD4602B080BD16
:4005C000040400200001002080B582B000AFFF237B6030E07B685A1E3E49131C5B009B18CB1859783B487A68131C5B009B18C3180A1C5A707B685A1E3649131C5B009B1838
:40060000585C34497A68131C5B009B18021C5A547B685A1E2F49131C5B009B18CB1899782C487A68131C5B009B18C3180A1C9A707B68013B7B607B68002BCBDC264B1B7849
:400640001F2B0ED8244B1A78224B5A70214B00221A70214B1B782022D31ADAB21D4B9A7024E01D4B1B783F2B10D81B4B1B784022D31ADAB2174B5A70174B1B78203BDAB2A1
:40068000144B1A70134B00229A700FE0114B00225A70114B1B786022D31ADAB20D4B1A700D4B1B78403BDAB20A4B9A70FFF752FF094B1B785F2B06D8074B1B780133DAB238
:4006C000054B1A7002E0044B00221A70BD4602B080BDC04600010020FC00002080B500AFFEE7C04680B586B000AF254B7B61254B3B61234B7B61234B3B6132E03B691B6840
:40070000FB603B695B68BB603B699B683B6000237B600CE0FB681A68BB681A60BB680433BB60FB680433FB607B6804337B607A683B689A42EED13B69DB683B6000237B602F
:4007400008E0BB6800221A60BB680433BB607B6804337B607A683B689A42F2D13B6910333B617B695A1E9341DBB27A69013A7A61002BC3D100F0B8FAFFF79EFEFEE7C0462D
:40078000010000008810000080B582B000AF00237B600FE07B68032B04D8104B7A689200D35800E00E4B0F4A796889008B507B6801337B607B682F2BECD9FFF7CFFC0A4BD5
:4007C00000221A608023DB058022D205126801210A431A60BD4602B080BDC04600000000DD06000000000020C000002080B582B000AF786039607A683B68101C00211A1C94
:4008000000F0A1FABD4602B080BDC04680B584B000AFF860B9607A60F968BA687B68081C111C1A1C00F086FABD4604B080BDC04680B586B000AF7860396000233B6100230E
:400840007B612EE07B699B007A68D3181B68BB603B1C0F33BA681A70BB68FF229343BB6017E03B695B003A68D3181B781A1CBB68D3183A69520039688A1852781A703B69A0
:4008800001333B613B1C0F333A1C0F321278013A1A703B1C0F331B78002BE2D17B6901337B617B69092BCDD9BD4606B080BDC04680B500AFBD4680BD80B584B000AF021CD7
:4008C0003960FB1D1A7080239B05FB60FB1D1B780F2B02D9002000F013F8FB1D1B789B00FA68D3181B68BB60FB1D1B789B00FA68D3183A681A60BB68181CBD4604B080BD19
:4009000080B582B000AF021CFB1D1A7001BEBD4602B080BD80B582B000AF021CBB1D1A80BB1D1B88044A12785343181C00F0CCF9BD4602B080BDC046D800002080B582B061
:4009400000AF0A1CFB1D011C1970BB1D1A70BB1D1B78002B04D1064BFA1D12781A7003E0044BFA1D12781A70BD4602B080BDC04643000F4053000F4080B584B000AF786022
:400980000A1CFB1C1A703B1C0F3300221A7020E03B1C0F331B78042B0AD83B1C0F331B787A68D3181B78181C0021FFF7C7FF09E03B1C0F331B787A68D3181B78181C012186
:4009C000FFF7BCFF3B1C0F333A1C0F32127801321A703A1C0F32FB1C12781B789A42D7D3BD4604B080BDC04680B582B000AF786000F04AF87B68181C00F008F8032000F04A
:400A000011F800F037F8BD4602B080BD80B582B000AF7860024B7A681A64BD4602B080BD0000002090B585B000AF021CFB1D1A700623FB603C1C0B3400F04FF9031C237001
:400A40000B4B0B4A1268C021101C8843011CFA1D1078FA68041C9440221C0A431A603B1C0B331B78181C00F03CF9BD4605B090BD00E400E080B500AF024B01221A60BD4647
:400A800080BDC04600E100E080B500AF024B01221A60BD4680BDC04680E100E080B582B000AF786000F05AF87B68181C00F008F8032000F011F800F037F8BD4602B080BD79
:400AC00080B582B000AF7860024B7A689A64BD4602B080BD0000002090B585B000AF021CFB1D1A701623FB603C1C0B3400F0F5F8031C23700A4B0A4A11680A4A1140FA1D48
:400B00001078FA68041C9440221C0A431A603B1C0B331B78181C00F0E4F8BD4605B090BD00E400E0FFFF3FFF80B500AF024B04221A60BD4680BDC04600E100E080B500AFE9
:400B4000054B1A680423134001D0012300E00023181CBD4680BDC04600E100E080B500AF024B04221A60BD4680BDC04680E100E080B500AF024B04221A60BD4680BDC04687
:400B800080E200E090B583B000AF00F08FF8F92000F06CF8F92000F04FF80C2000F032F800F040F8802000F071F8FC1D00F095F8031C2370074B074A1278D2B210210A43BA
:400BC000D2B21A70FB1D1B78181C00F08AF8BD4603B090BD91000F4080B500AFBD4680BD80B500AF064B1B78002B04D1FFF7CAFF034B01221A70FFF7EFFFBD4680BDC046E3
:400C0000FD00002080B582B000AF021CFB1D1A70034BFA1D12781A70BD4602B080BDC04681000F4080B500AF024B1B78DBB2181CBD4680BD61000F4080B582B000AF021CD7
:400C4000FB1D1A70034BFA1D12781A70BD4602B080BDC04601000F4080B500AF024B1B78DBB2181CBD4680BD41000F4080B582B000AF021CFB1D1A70034BFA1D12781A706D
:400C8000BD4602B080BDC04621000F4080B582B000AF021CFB1D1A70034BFA1D12781A70BD4602B080BDC04631000F4080B500AF01E0FFF7D1FFFFF7B5FF031C1A1C402318
:400CC0001340F6D1BD4680BD0230800804D0C0460138FDD1C046C0467047EFF3108072B6704780F31088704770B50E4B0E4D0024E81A85101E1CAC4204D0A1007258904757
:400D00000134F8E700F0AEF90849094A0E1C541AA5100024AC4204D0A300F05880470134F8E770BD7010000070100000701000007810000010B50023934203D0CC5CC45466
:400D40000133F9E710BD00B58218031C934202D019700133FAE700BD0000000000300F40800200330F40000100400F400004000080320F40E00F00008000000005000F4047
:400D800063300F403B310F4021320F4045330F4006400F4001410F4002420F4009430F4002600F400017100520173003816B011504110503060A071C0A070D0A16181809C9
:400DC00019051A121B1A1C2022182404250C261827133020311F321F39803B023E013F40404545404720482249FF4AFF4BFF4D904F205014580459045A045B045C335D03BD
:400E00005F0162986440654066416740800181038B068C04910296049B01A201A308A402A802AD03B001B108B303B402B604B704B920BE51C025C55CC620C70EC81BC9FFE5
:400E4000CAFFCBFFCDA0CF01D018D40BD604D804D904DA04DB04DC10DD11DF05E040E280E440E540E680E840EA50EBA8EC40ED20EE50EFA800100108074109080B0A0F20E3
:400E8000108012201501172418101B011D201E82208021012240276529082D012E40322037213840390A3B083C023F3042404520480149014D014F84520256085710580818
:400EC0005A805E825F106302660867447E01800883018740C096C227C47CCA92CCA4CEABD021D218D6BAD8E8DE1000040210040A05080D680E080F9010031214140A154312
:400F0000179C19321BC420042219240A270129A02B5B2D0831F032103405350F360F388039023B20580459045C335F01008401800348050106010720088009880A440B0882
:400F40000E501080120313141480170419081A521B481C021D901F042104233424442620274429882D802E042F08310832203340372438803B143C403F04400442104B104E
:400F800050C0510853018A018D10944095089642970299019D08A040A202A481A508A620A740B410C0BFC23FC43FCA7ACC6ECE5ED006D204EA106C0473028702DA80DC20CD
:400FC000E640B4046520D801590866088A088D08B520D602D801E006E808010A100A00003800000006AE390035180AE3380400024000800008001404032800D740568000A9
:40100000200000003860009D0D00320000568000C0003F0700F8400082000C28000040002306000000000DBC34FFFFFF000070001400000000000000040404003303000128
:401040000000C0010001400130110011101100010000000000000000000000000000000004000000F8B5C046F8BC08BC9E4670475903000089070000F8B5C046F8BC08BC18
:401080009E4670473103000098100000C8000020180000002803000000000000C0F1FF0F005A6202409C0000280000000000204E000000000000000000000000000000009F
:4010C00000000000000000000000000000000000000000000000000000000000000000000000000000000000000000000000000000000000000000000000000000000000F0
:4011000000000000000000000000000000000000000000000000000000000000000000000000000000000000000000000000000000000000000000000000000000000000AF
:40114000000000000000000000000000000000000000000000000000000000000000000000000000000000000000000000000000000000000000000000000000000000006F
:40118000000000000000000000000000000000000000000000000000000000000000000000000000000000000000000000000000000000000000000000000000000000002F
:0200000490303A
:02000000640A90
:0200000490402A
:200000000000000000000000000000000000000000000000000000000000000000000000E0
:0200000490501A
:0C000000000204C81193110104CD759D8D
:0200000490600A
:0100000001FE
:00000001FF