:400000000010002011000000010300000103000080B500AF00F078F980B584B000AF021CFB1D1A70224A3B1C0B3312781A70214A3B1C0A3312781A701F4B1B68013BFB60AE
:400040001AE01E4B1868391C0B31FA68131C5B009B18C31801331B780B70184B1868391C0A31FA68131C5B009B18C31802331B780B70FB68013BFB60FB68002B0ADB0F4B59
:400080001968FA68131C5B009B185B5CFA1D12789A42D6D90A4B3A1C0B3212781A60094B3A1C0A3212781A60BD4604B080BDC046CCF1FF0FCDF1FF0F6C070000CC00002077
:4000C0001CFF0B4020FF0B4080B500AF174B174A12688021C9020A431A602820FFF79CFF134B144A1278D2B21A60052000F0E4F9114B2B221A60114B10221A60104B202205
:400100001A60104B802212061A600F4B802212061A60064B8022D2021A600C4B0C4A1A600C4B0D4A1A60BD4680BDC04600010B4028FF0B40F5F1FF0F2CFF0B4034020240B2
:400140003C02024008010B4004010B400000024001000080400002405600008080B582B000AF72B6FB1D00221A7023E0FB1D1A78131C5B009B185B002E4A9B183B603B6890
:400180001A78597809020A43997809040A43DB781B0613431A1C3B6819795B791B020B439BB2101C191C00F033F9FB1DFA1D127801321A70FB1D1B78012BD7D91E4A1F4B0C
:4001C000101C191C00F034F91D4B1E4A1A601E4BEE2212021A601D4B07221A601C4BDB2252001A601B4BD82212011A601A4B992212041A60194BE42292031A60184B9922C1
:4002000012041A60174B174A1278D2B202210A43D2B21A70134B134A1278D2B206210A43D2B21A70FFF750FF00F042F9BD4602B080BDC046640500007005000090050000B9
:4002400008000140330300000C00014000020440080204400803044020500F4028500F4030500F4000700F4010B5064C2378002B07D10548002802D0044800E000BF0121B2
:40028000217010BDE0000020000000006005000008B5084B002B03D00748084900E000BF07480168002903D0064A002A00D0904708BDC0460000000060050000E400002025
:4002C000C80000200000000080B582B000AF00237B6002E07B6801337B607B683F2BF9DD064B05221A70054B11221A70034B05221A70024B11221A70E9E7C04650000F407E
:4003000080B500AFFEE7C04680B586B000AF254B7B61254B3B61234B7B61234B3B6132E03B691B68FB603B695B68BB603B699B683B6000237B600CE0FB681A68BB681A6064
:40034000BB680433BB60FB680433FB607B6804337B607A683B689A42EED13B69DB683B6000237B6008E0BB6800221A60BB680433BB607B6804337B607A683B689A42F2D149
:400380003B6910333B617B695A1E9341DBB27A69013A7A61002BC3D100F0B2F8FFF794FFFEE7C046010000009407000080B582B000AF00237B600FE07B68032B04D8104B50
:4003C0007A689200D35800E00E4B0F4A796889008B507B6801337B607B682F2BECD9FFF7BDFE0A4B00221A608023DB058022D205126801210A431A60BD4602B080BDC0469A
:40040000000000000103000000000020C000002080B582B000AF786039607A683B68101C00211A1C00F092F8BD4602B080BDC04680B586B000AF7860396000233B6100234A
:400440007B612EE07B699B007A68D3181B68BB603B1C0F33BA681A70BB68FF229343BB6017E03B695B003A68D3181B781A1CBB68D3183A69520039688A1852781A703B69A4
:4004800001333B613B1C0F333A1C0F321278013A1A703B1C0F331B78002BE2D17B6901337B617B69072BCDD9BD4606B080BDC04680B500AFBD4680BD80B582B000AF021CDF
:4004C000BB1D1A80BB1D1B88044A12785343181C00F006F8BD4602B080BDC046D80000200230800804D0C0460138FDD1C046C0467047EFF3108072B6704780F3108870471E
:4005000070B50E4B0E4D0024E81A85101E1CAC4204D0A100725890470134F8E700F028F90849094A0E1C541AA5100024AC4204D0A300F05880470134F8E770BD7C07000077
:400540007C0700007C0700008407000000B58218031C934202D019700133FAE700BD00000000000000300F40000400400F40000403000F4052300F4026310F403A320F40E0
:400580002E330F4007420F4001430F4002600F4020173001820F00040110030205610607079E09050C040E0114011602180119081A061B801D531FAC333035C03607370F1F
:4005C00039203A804021450246D04740482949FF4AFF4BFF4D905004580459045A045C135D015F0162B0644065406641674080048A0E8C0C960697029C01A503A903AA0AAB
:40060000AD01B103B20EB401B902BA08BF01C001C550C710C822C9FFCA07CBFFCC40CD20CEF0CF05D008D804D904DA04DC03DD03DF01E040E1A8E240E32000080182059223
:400640000B280E100F02160819801C081D101E181F042005224827802D802E082F1430203240360438264005478048204D025011570180018208C0DDC2A6C440CA70CC4C1F
:40068000CE07D01CE0050104070108030A0C0C09170118031A041F01210224032501260429012A0E3101340F350237043A203F514024410345EC47B0482349FF4AFF4BFFFD
:4006C0004EF04F44500C5401580459045A045B045C035D335F0166C06A406B028114850C8711930399109B0CA310A909AB10AD1CAF02B11FD904DC30DF01059008200B04D3
:400700000F04140816201D301F102102278A280829822D012E202F1431223408358036043A013B083F064520462047024D014F0456015C205D015F88930897209982A20449
:40074000A301A810C0C0C240C460CAEDCC55CEC3D0E0D6F0E80456205B205E4082208320D403D604AA40010A100A000004000000F8B5C046F8BC08BC9E46704791020000BB
:40078000AD030000F8B5C046F8BC08BC9E46704769020000A8070000C800002018000000200000000000000000000000C0F1FF0F005A6202409C0000280000000000204E9A
:4007C00000000000000000000000000000000000000000000000000000000000000000000000000000000000000000000000000000000000000000000000000000000000F9
:4008000000000000000000000000000000000000000000000000000000000000000000000000000000000000000000000000000000000000000000000000000000000000B8
:400840000000000000000000000000000000000000000000000000000000000000000000000000000000000000000000000000000000000000000000000000000000000078
:400880000000000000000000000000000000000000000000000000000000000000000000000000000000000000000000000000000000000000000000000000000000000038
:0200000490303A
:020000005AA400
:0200000490402A
:200000000000000000000000000000000000000000000000000000000000000000000000E0
:0200000490501A
:0C000000000204C81193110104CA6C37FF
:0200000490600A
:0100000001FE
:00000001FF