:400000000010002011000000150800001508000080B500AF00F002FC80B584B000AF021CFB1D1A70224A3B1C0B3312781A70214A3B1C0A3312781A701F4B1B68013BFB60EF
:400040001AE01E4B1868391C0B31FA68131C5B009B18C31801331B780B70184B1868391C0A31FA68131C5B009B18C31802331B780B70FB68013BFB60FB68002B0ADB0F4B59
:400080001968FA68131C5B009B185B5CFA1D12789A42D6D90A4B3A1C0B3212781A60094B3A1C0A3212781A60BD4604B080BDC046CCF1FF0FCDF1FF0FA82A0000EC000020F8
:4000C0001CFF0B4020FF0B4080B500AF204B204A12688021C9020A431A602820FFF79CFF1C4B1D4A1278D2B21A60052000F07EFD1A4B2B221A601A4B20221A60194B102228
:400100001A60194B30221A60184B21221A60184B11221A60174B802212061A60164B802212061A600A4B8022D2021A60134B144A1A60144B144A1A60144B154A1A60154B70
:40014000134A1A60144B154A1A60BD4680BDC04600010B4028FF0B40F5F1FF0F2CFF0B40140202401802024034020240380202403C02024008010B4004010B4000000240F4
:40018000FE00008040000240FE0000C0800002403F00008004000240440002400100008080B582B000AF72B6FB1D00221A7023E0FB1D1A78131C5B009B185B00444A9B182B
:4001C0003B603B681A78597809020A43997809040A43DB781B0613431A1C3B6819795B791B020B439BB2101C191C00F09BFBFB1DFA1D127801321A70FB1D1B78012BD7D9F6
:40020000344A354B101C191C00F09CFB334BE02212011A80324B01221A70324BCC2292011A60314BC02292041A60304B304A1A60304B8C221A60304B304A1A60304B7E22FF
:400240001A60304BC02252031A602F4B3E221A602E4B10221A602E4BDB22D2011A602D4B04221A602C4B04221A602C4B992212041A602B4B802212061A602A4B80221204D4
:400280001A60294B992212041A60284B802252051A60274B992212041A60264B982252051A60254B244A1278D2B202210A43D2B21A70214B204A1278D2B206210A43D2B220
:4002C0001A70FFF701FF00F07DFBBD4602B080BDE4270000F02700001828000000600F4002600F4000000140040001400C00014000EE03000000044008000440800D400041
:400300000001044008010440180104400003044008030440000404401804044000500F4004500F4008500F4010500F4018500F4030500F4038500F4000700F4010B5064CC5
:400340002378002B07D10548002802D0044800E000BF0121217010BD3801002000000000E027000008B5084B002B03D00748084900E000BF07480168002903D0064A002A52
:4003800000D0904708BDC04600000000E02700003C010020C800002000000000B0B582B000AF021C3960FB1D1A70FB1D1B787F2B32D93049FB1D1B781A1C0F231340083B5E
:4003C00098082C4AFB1D1B781C1C0F232340083B9B0806339B00D3185B68FA1D1278141C03222240D200FF24251C95402A1CD2431A403B689C01FF231C40FB1D1B781D1C4D
:4004000003232B40DB00251C9D402B1C1A43831D9B00CB185A6029E0174BFA1D127852B292081549F81D007840B28008C03080004158F81D0078041C03202040C000FF248B
:40044000251C8540281CC043084039688C01FF210C40F91D09780D1C03212940C900251C8D40291C0143C0329200D150BD4602B0B0BDC04600ED00E000E100E080B582B0DE
:4004800000AF78607B685A1E0C4B9A4201D9012310E00B4B7A68013A5A6001235B42181C0321FFF77BFF064B00229A60044B07221A600023181CBD4602B080BDFFFFFF00DE
:4004C00010E000E080B582B000AF021CFB1D1A70C04600F07DFC031C1A1C02231340F8D1034BFA1D12781A70BD4602B080BDC04642000F4080B584B000AF786039600023A3
:40050000FB6020E0FA68131C5B009B187A68D3181B78181CFFF7D6FFFA68131C5B009B187A68D3185B78181CFFF7CCFFFA68131C5B009B187A68D3189B78181CFFF7C2FFC4
:40054000FB680133FB60FA683B689A42DAD3BD4604B080BD90B583B000AF394B1B78002B3FD009237B6015E07B68591E354C7B681A1C5200D21833480B1C5B005B18A1183A
:40058000C2180323081C111C1A1C02F017F97B68013B7B607B68002BE6DC2B4B1B781F2B0ED8294B1B782022D31ADAB2254B5A70254B1A78234B1A70224B00229A703CE004
:4005C000204B00225A70204B1B784022D31ADAB21C4B1A701C4B1B78203BDAB2194B9A702BE0391C174A1B23D2180323081C111C1A1C02F0E3F809237B6015E07B68591ED2
:40060000104C7B681A1C5200D2180E480B1C5B005B18A118C2180323081C111C1A1C02F0CDF87B68013B7B607B68002BE6DC054B3A1C1188198092789A70BD4603B090BD0E
:4006400059010020A40100209C01002090B583B000AFFC1D01F090FD031C2370114B1B78012B18D1FB1D1B78002B14D10E4B1B7801225340DAB20C4B1A700B4B1B78002B2C
:4006800009D10A4B0A4A13CA13C313CA13C31168196092889A80034BFA1D12781A70BD4603B090BDEA00002059010020A4010020CC00002080B500AF0F4B1B685A1C0E4BEA
:4006C0001A600D4B1B68FA2B04D10B4B00221A60FFF740FF094B1B780133DAB2074B1A70064B1B78142B04D1044B00221A70FFF7ADFFBD4680BDC046540100205801002038
:4007000080B582B000AF002001F012FA031C1A1CFB1D1A70FB1D1B78FF2B03D01C4BFA1D12781A701A4B1B781F2B0ED8184B1B782022D31ADAB2174B5A70154B1A78154BFE
:400740001A70144B00229A700FE0124B00225A700F4B1B784022D31ADAB20E4B1A700C4B1B78203BDAB20B4B9A700A4B5B78181C00F0E4FA074B1B78181C00F0EFFA054BE4
:400780009B78181C01F096FDBD4602B080BDC0469C010020A001002080B582B000AF00237B6002E07B6801337B607A68154B9A42F8DD00F02FFA01F0EDFC134B181CFFF7A2
:4007C0005DFE031C002B00D0FEE7104B0F20191C00F038F962B600F0ABFB00F039FF0C4B181C0A21FFF786FE01F05EF800F002FCC04600F02BFC031C002BFAD1FFF780FFDD
:40080000EDE7C046FF070000409C0000B5060000A401002080B500AFFEE7C04680B586B000AF254B7B61254B3B61234B7B61234B3B6132E03B691B68FB603B695B68BB60D1
:400840003B699B683B6000237B600CE0FB681A68BB681A60BB680433BB60FB680433FB607B6804337B607A683B689A42EED13B69DB683B6000237B6008E0BB6800221A6024
:40088000BB680433BB607B6804337B607A683B689A42F2D13B6910333B617B695A1E9341DBB27A69013A7A61002BC3D101F060FFFFF772FFFEE7C04601000000902B000054
:4008C00080B582B000AF00237B600FE07B68032B04D8104B7A689200D35800E00E4B0F4A796889008B507B6801337B607B682F2BECD9FFF755FC0A4B00221A608023DB0588
:400900008022D205126801210A431A60BD4602B080BDC046000000001508000000000020C000002080B582B000AF786039607A683B68101C00211A1C01F049FFBD4602B049
:4009400080BDC04680B586B000AF7860396000233B6100237B612EE07B699B007A68D3181B68BB603B1C0F33BA681A70BB68FF229343BB6017E03B695B003A68D3181B7863
:400980001A1CBB68D3183A69520039688A1852781A703B6901333B613B1C0F333A1C0F321278013A1A703B1C0F331B78002BE2D17B6901337B617B69092BCDD9BD4606B0FF
:4009C00080BDC04680B500AF012000F003F8BD4680BDC04680B584B000AF021CFB1D1A70154B1B68FB60FB1D1B78002B05D0FB68802212061343FB6003E0FB685B005B08EB
:400A0000FB600D4BFA681A600C4B1B68FB60FB1D1B78002B05D0FB68802292041343FB6003E0FA68064B1340FB60044BFA681A60BD4604B080BDC04680031A4008010B4061
:400A4000FFFFFFFD80B584B000AF021C3960FB1D1A7080239B05FB60FB1D1B780F2B02D9002000F0B9F8FB1D1B789B00FA68D3181B68BB60FB1D1B789B00FA68D3183A6886
:400A80001A60BB68181CBD4604B080BD80B584B000AF021C3960FB1D1A7080239B05FB60FB1D1B781F2B02D9002000F095F8FB1D1B7810339B00FA68D3181B68BB60FB1D69
:400AC0001B7810339B00FA68D3183A681A60BB68181CBD4604B080BD90B587B000AF0A1CFB1D011C1970BB1D1A70BB1D1B78032B02D9002000F070F8FB1D1B781F2B02D9A4
:400B0000002000F069F8FB1D1A7803231340DB0006337B613C1C133401F00FFC031C2370FB1D1B789B08DBB29B0014495B181B68FB607B690322111C99400B1CDA43FB680A
:400B40001340FB60BB1D1A787B69111C99400B1CFA681343FB60FB1D1B789B08DBB29B00064A9B18FA681A603B1C13331B78181C01F0E7FBBD4607B090BDC04600E400E0DC
:400B800080B582B000AF021CFB1D1A70064BFA1D11781F220A400121081C9040021C1A60BD4602B080BDC04600E100E080B582B000AF021CFB1D1A70064BFA1D11781F2274
:400BC0000A400121081C9040021C1A60BD4602B080BDC04680E100E080B582B000AF021CFB1D1A7001BEBD4602B080BD80B582B000AF021CBB1D1A80BB1D1B88044A127844
:400C00005343181C01F090FBBD4602B080BDC046F800002080B500AF064B1B78002B04D100F00AF8034B01221A7000F049F8BD4680BDC0465C01002090B583B000AF1E4B25
:400C40001B78DAB2FB1D3F218A431A701A4BFA1D127824210A43D2B21A70184B174A1278D2B201210A43D2B21A70FF2000F038F8FF2000F053F8002000F060F8002000F080
:400C80006DF8002000F07AF8BC1D01F056FB031C23700A4B094A1278D2B210210A43D2B21A70BB1D1B78181C01F04BFB00F028F8BD4603B090BDC04670000F4090000F40B1
:400CC00080B500AF054B054A1278D2B2802149420A43D2B21A70BD4680BDC04670000F4080B582B000AF021CFB1D1A70034BFA1D12781A70BD4602B080BDC04600000F4041
:400D000080B500AF01E000F059F800F047F8031C1A1C10231340F6D1BD4680BD80B582B000AF021CFB1D1A70034BFA1D12781A70BD4602B080BDC04640000F4080B582B05F
:400D400000AF021CFB1D1A70034BFA1D12781A70BD4602B080BDC04620000F4080B582B000AF021CFB1D1A70034BFA1D12781A70BD4602B080BDC04630000F4080B582B0F7
:400D800000AF021CFB1D1A70034BFA1D12781A70BD4602B080BDC04680000F4080B582B000AF054AFB1D12781A70FB1D1B78181CBD4602B080BDC04660000F4080B500AF89
:400DC000024B1B78DBB2181CBD4680BD50000F4080B500AF024B1B78DBB2181CBD4680BD62000F4080B582B000AF00237B6007E00A4A7B68D31800221A707B6801337B6042
:400E00007B68042BF4D900F00BF8002000F048FB00F038F9BD4602B080BDC046C801002080B582B000AF244B1B68DAB2234B1A70224B1B787B607B680F2293437B60204BF4
:400E40001B78DBB21A1C0F2313407A6813437B607B68F02293437B60194B1B78DBB21A1CF02313407A6813437B60134B7A681A60144B154A1A60154B154A1A60154B1B689D
:400E80007B607A68144B13407B607B68C022D20013437B600F4B7A681A600F20FFF786FE0E4B0F20191CFFF7F1FD0F200321FFF713FEBD4602B080BD00FF0840C5010020A7
:400EC00062F1FF0F0800084000020001040008400008A00110000140FFF0FFFFE51C000080B582B000AF01F01FF901F0E7F80020002101F0EFF80020002101F021F901F0C5
:400F000005F901F0CDF8084B1B687B607B68074A13437B60044B7A681A600F20FFF730FEBD4602B080BDC046040008400010088080B500AF0C4B1B78002B04D1FFF752FFF8
:400F4000094B01221A70FFF7CBFF00F035FF074B01221A70064B064A12688021C9030A431A60BD4680BDC04661010020600100200400084080B584B000AF021CFB1D1A70D1
:400F8000FB1DFA1D127801321A70FB1D1B78052B0CD0FB1D1B78094A101C191C00F098FA031CFB60FB68002BEAD000E0C046FB1D1B78181CBD4604B080BDC0460001002081
:400FC00080B582B000AF7860084B00221A707B68DAB2074B1A70054B81221A707B68181C00F05CF9BD4602B080BDC046620100206301002080B500AF124B00221A70124B97
:40100000FF221A70104B1B78DBB2181CFFF7B2FF031C1A1C0C4B1A700B4B1B78DBB2042B0DD8084B1B78DBB201221343DAB2054B1A70054B1B78DBB2181C00F02FF9BD46DE
:4010400080BDC046620100206301002080B500AF044B1B78DBB21A1C01231340181CBD4680BDC0466201002080B582B000AF7860034B7A685200D35A181CBD4602B080BD66
:401080006401002080B582B000AF00237B6006E07B68181C00F070F87B6801337B607B68042BF5D9BD4602B080BDC04690B587B000AF78602C4A7B68D3181B787B612B4A4D
:4010C0007B68D3181B783A1C1332191C4900CB181370264A7B68D3181A783B1C123392001A703C1C113401F028F9031C2370204B7A699200D3581B68FB603B1C12331B780F
:401100000F22111C99400B1CDA43FB681340FB603B1C12331B780422141C9C40231CFA681343FB60134B7A699200D358114A796989008A581268391C133109780720041CEF
:401140008C40211CC9430A401A60094B7A699200D358FA681A603B1C11331B78181C01F0F0F8BD4607B090BDAC2A0000C82A0000D82A0000EC2A000090B589B000AF78609F
:40118000404A7B68D3181B787B613F4A7B68D3181A783B1C133392001A703B4A7B68D3181B783A1C1232191C4900CB1813700023FB61364A7B68D3181B78BB61344B7A6984
:4011C0009200D358324A796989008A581268391C133109780F20041C8C40211CC9430A401A60BB69022B01D10023BB61BB69022B45D0BB69012B01D00623FB613C1C1134A2
:4012000001F09BF8031C2370224B7A699200D3581B68FB603B1C12331B780722111C99400B1CDA43FB681340FB603B1C12331B78FA69141C9C40231CFA681343FB60154B8A
:401240007A699200D358FA681A603B1C11331B78181C01F076F8104B7A699200D3580E4A796989008A58126807487968411809780120041C8C40211CC9430A401A60BD46F0
:4012800009B090BDAC2A0000C82A0000C8010020D82A0000EC2A0000002B000090B589B000AF78603B1C1B333D497A688A1812781A703B1C1B331A783A4B9200D358FB6197
:4012C000394A7B68101C191C00F002F9031C7B61FA69364B9A420AD87B69FA69111C99400B1CFB61FB69FF2212041343FB61304A7B68D3181B78013B9BB2181C002100F0D9
:40130000E9FE2C4A7B68D3181B78013B9BB2181C002100F015FF0F20FFF748FC264B1B683B613A69254B13403B61254A7B68D3181B781A1C23497B68CB181B781B041343D2
:401340003A6913433B611C4B3A691A601E4B1B683B613A691D4B13403B613B691C4A13433B610F20FFF70CFC7B68181CFFF79EFE3C1C0F3400F0E1FF031C2370124B3A69E3
:401380001A60BF2000F0D0FF124BFA691A603B1C0F331B78181C00F0D4FFBD4609B090BDD02A00001801002038020020FFFFFEFFD0010020E00100200800084000FF80FF67
:4013C000D8010020E801002004000840FF1FDFFF200020000C00084080B586B000AF7860254B1B6899B2254B7A685200D152244A7B68D3181B787B61224B7A699200D25861
:40140000214B9A4215D8214A7B68101C191C00F05FF8031C3B61194B7A685200D35A1A1C3B69111C19410B1C99B2144B7A685200D1527B68181CFFF79FFE0F20FFF7B6FBF8
:40144000134B1B68FB60FA68124B1340FB60FB68A02212021343FB600D4BFA681A600E4B0D4A11680D4A0A401A600F20FFF788FBBD4606B080BDC0460C00084064010020E4
:40148000D02A000018010020FFFFFEFF3802002004000840FF1FDFFF0800084000FF80FF80B584B000AF78607A68032313407B60064B1B68FB607B685B02FA681343FB60E6
:4014C000024BFA681A60BD4604B080BD0400084080B584B000AF786039603B68DB08FB603A680723134001229A403B1C0B331A707A68FB68D3181B783A1C0B3212781340AB
:40150000DBB2002B01D0012300E00023181CBD4604B080BD80B586B000AFF860B9607A60BB68DB087B61BA680723134001229A403B1C13331A707B68002B0DD0FA687B6998
:40154000D318F9687A698A1811783A1C133212780A43D2B21A700EE0FA687B69D318F9687A698A181278391C13310978C943C9B20A40D2B21A70BD4606B080BD80B584B0AA
:4015800000AF78600023BB600023FB6014E07B68181CFFF715FDC046FFF758FD031C012BFAD07B68181CFFF75FFD031CBA68D318BB60FB680133FB60FB68002BE7D0BB6865
:4015C0009BB2181CBD4604B080BDC04680B582B000AF78600E4B7A685200D15A0D4B7A685200D1520C4A7B68D31800221A700B4A7B68D31800221A70054B7A685200D15ACD
:40160000074B7A685200D152BD4602B080BDC04664010020700100207C01002084010020F001002080B582B000AF78607B68181CFFF7C6FCC046FFF709FD031C002BFAD1CC
:401640007B68181CFFF7C2FFBD4602B080BDC04680B582B000AF00237B6006E07B68181CFFF7E0FF7B6801337B607B68042BF5D9BD4602B080BDC04690B587B000AF7860F1
:401680003B1C113376497A688A1812781A703B1C11331A783B1C103372498A5C1A703B1C0E33714A796849008A5A1A806F4B7A685200D35A3C1C0E343A1C0E321288101C3A
:4016C000191C00F0F1FA031C2380684B7A685200391C0E310988D1527B68DAB26449624B081C111C1A1C00F007FF624B7A685200D35A3A1C0E3212889A4212D35E4A7B6819
:40170000D31800221A705B4B7A685200D25A3B1C1233391C0E3109888A1A1A8001237B610CE0544B7A685200D15A3B1C12333A1C0E3212888A1A1A8000237B617B69002B0B
:4017400024D13B1C11331B784C4AD35C3A1C123212889A421AD9484A7B68D3181B78042B09D97B68181CFFF731FF434A7B68D31800221A704CE0404A7B68D3181B780133EB
:40178000DAB23D497B68CB181A7041E03B1C10331B789BB23A1C123212889A420CD93B1C11331B78354AD35C3A1C123212889A422ED27B69002B2BD12E4B7A685200D35A66
:4017C0001B02BB602E4A7B68D3181B78BA681343BB603B1C0E331B88BA68D318BB60254B7A685200D35ABA68D31ABB60BB681B0A99B2204B7A685200D152BB68DAB220497A
:401800007B68CB181A701C4A7B68D31800221A703B1C10331B789BB23A1C123212889A4216D97B69002B13D03B1C12331B88FF2B05D9144A7B68D318FF221A700DE03B1CAB
:4018400012331B88DAB20F497B68CB181A7004E00C4A7B68D31800221A70BD4607B090BDD02A0000FC01002064010020F001002020020020700100200402002000020020C9
:401880007C0100208401002080B582B000AF78607B68181C00F012FB7B68181CFFF7ECFEBD4602B080BDC04680B582B000AF00237B6011E00B4A7B68101C191CFFF708FE5B
:4018C000031C3B603B68002B03D07B68181CFFF7DBFF7B6801337B607B68042BEAD9BD4602B080BD0001002080B584B000AFFB1D1870BB1D19707B1D1A703B1C0E33FF22D8
:401900001A703B1C0D3300221A70FB1D1A78204BD318BB603B1C0F3300221A702AE03B1C0F331B78BA68D3181B787A1D12789A4219D23B1C0F331B78BA68D3181B783A1C9A
:401940000D3212789A420ED23B1C0E333A1C0F3212781A703B1C0F331B78BA68D2183B1C0D3312781A703B1C0F333A1C0F32127801321A703A1C0F32BB1D12781B789A42DD
:40198000CDD33B1C0E331B78181CBD4604B080BD8401002090B589B000AF041C081C111C1A1CFB1D1C70BB1D18707B1D1970BB1C1A80BB1D1A785C4BD318BB613B1C1F3364
:4019C00000221A703B1C173300221A70FB1D1B78002B05D03B1C1F33FA1D1278013A1A703B1C1733FA1D127801321A70FB1D1B78BA69D3181A784D4B5A70FB1D1B78002BB2
:401A00000BD14A4B00221A703B1C17331B78BA69D3181A78454B9A7022E0FB1D1A787B1D1B78013B9A420BD13B1C1F331B78BA69D3181A783D4B1A703C4B00229A700FE0C0
:401A40003B1C1F331B78BA69D3181A78374B1A703B1C17331B78BA69D3181A78334B9A70324B1B783A1C303212789A4209D22F4B1A783B1C30331B78D31ADAB22B4B1A7047
:401A800002E02A4B00221A70284B5A783B1C30331B78D31ADAB2254B5A70244B9B783A1C303212789A4209D2204B9A783B1C30331B78D31ADAB21D4B9A7002E01B4B002244
:401AC0009A701A4B9B781A1C184B1B78D31A3B61164B1B781A1C154B5B78D218134B9B78D318FB603B691B02181CF96800F0DEFD031C1A1CFB1D1B781B02D318FB60BB1C56
:401B00001B881AB2FB685343FB60FB68FE22D2019B181A0C3B1C0B331A703B1C0B331B78181CBD4609B090BD840100209401002090B587B002AF78603B1C0D3353497A68BB
:401B40008A1812781A703B1C0C3351497A688A1812781A703B1C0B334E497A688A1812781A703B1C0A334C497A688A1812781A704A4A7B68D3181B783C1C09343A1C0B3245
:401B800011783A1C0A321278081C111C1A1CFFF7ABFE031C23703B1C09331B78FF2B5CD03F4B7A685200D35A3E497A688A1814783A1C093210783A1C0B3211783A1C0A32E3
:401BC00012780094FFF7E6FE031C1A1C3B1C0E331A803B1C0C331A781F2313404ED03B1C08333A1C0D32127801321A703B1C0D331B78264AD35C002B0FD13B1C08331B7824
:401C00003A1C0E321288D1B2204AD1543B1C0D331B781E4A0121D15430E03B1C0C331A78082313402AD03B1C08331B78174AD35C3C1C0E343A1C0E321288101C191C00F009
:401C400033F8031C23803B1C08331B783A1C0E321288D1B20D4AD15410E03B1C0E33012252421A803B1C0C331A781F23134005D03B1C0D331B78054A0021D1543B1C0E3361
:401C80001B88181CBD4605B090BDC0462C010020202B0000142B0000182B0000240100201C2B0000FC01002080B584B000AF0A1CBB1D011C19803B1D1A80BB1D1A883B1DEF
:401CC0001B88D318FB603B1D1B885B00FA68D318FB60FB689B08FB60FB689BB2181CBD4604B080BD80B500AF0F20FEF75FFF2C4B01221A602B4B1B78DBB2181CFFF76CFB23
:401D0000294B1B78DBB2DBB25BB2002B08DA264B1B78DBB201229343DAB2234B1A703AE0204B1B78DBB2181CFFF724F9031C1A1C1C4B1A701B4B1B78DBB2042B06D8194B31
:401D40001B78DBB2181CFFF7A9FA24E0164B1B78DBB201229343DAB2134B1A70124B1B78DBB21A1C4023134015D0104B00221A700DE00E4B1B780D4A12780D49895C0D4AE3
:401D8000D1540A4B1B780133DAB2084B1A70074B1B78002BEDD00F20FEF7F2FEBD4680BD14000840630100206201002098010020C40100200001002080B582B000AF364B9F
:401DC00005221A70344B01225A70334B05229A70314B2822DA80304B304A9A802E4B304A9A6000F0F1F800233B6007E02D4B3A6892002D49D1503B6801333B60264B5B7884
:401E00001A1C3B689A42F1D800237B600CE0274A7B68D31803221A70254A7B68D31804221A707B6801337B607B68042BEFD900F0D7F8194A1F4B101C191C00F0A7FA1E4BAC
:401E40000120191C00F072F8134B181C00F0B0FA114A184B101C191C00F098FA164B0120191C00F063F80C4B181C00F0C5FA0A4B181C00F0CFF800237B6006E07B68181C6E
:401E800000F01CF87B6801337B607B68042BF5D9BD4602B080BDC0462002002066020000342B0000180100200000FF0FE0010020D00100209A0D0000D801002080B584B009
:401EC00000AF7860144A7B68D3181B78FB603B1C0B331249FA688A1812781A703B1C0B331B785B08DAB20E49FB68CB181A703B1C0B331B785B08DAB20A49FB68CB181A70C1
:401F00003B1C0B331B78DB08DAB20749FB68CB181A70BD4604B080BDD02A000024010020FC010020000200200C02002080B588B000AF786039600023FB613AE000237B6125
:401F40001F4AFB69D3181B783B611E4AFB69D3181B78BB61BA693B69D318FB600FE03A68BB69D3181B781A1C7B699A4204D93A68BB69D3181B787B61BB690133BB61BA694A
:401F8000FB689A42EBD30F4AFB69D3181B78BB6108E03A68BB69D3187A69D2B21A70BB690133BB61BA69FB689A42F2D3FB690133FB61FA697B689A42C0D3BD4608B080BD07
:401FC000182B0000142B000080B500AF034B034A126840218A431A60BD4680BD0400084080B582B000AF094B1B687B607A68084B13407B607B688022920013437B60034B71
:402000007A681A60BD4602B080BDC04608000840FFFCFFFC80B584B000AF78600023FB6017E01A4AFB68D3181B785B08DAB21849FB68CB181A70154AFB68D3181B780133C8
:402040005B08DAB21149FB68CB181A70FB680133FB607B681B781A1CFB689A42E1D80F20FEF7A4FD0B4B1B68BB60BA680A4B1340BB60BB68094A1343BB60064BBA681A603F
:402080000F20FEF77DFDBD4604B080BDD8010020E801002008000840FFFCFFFC0002000180B500AF044B044A1268802109060A431A60BD4680BDC0460000024080B500AF65
:4020C000034B034A1268520052081A60BD4680BD0000024080B584B000AF0A1CBB1D011C19807B1D1A70084B1B681B0C1B04FB60BB1D1A88FB681343BB60034BBA681A6086
:40210000BD4604B080BDC0460000024080B500AF044B044A1268802109060A431A60BD4680BDC0464000024080B500AF034B034A1268520052081A60BD4680BD4000024048
:4021400080B584B000AF0A1CBB1D011C19807B1D1A70084B1B681B0C1B04FB60BB1D1A88FB681343BB60034BBA681A60BD4604B080BDC0464000024080B500AF044B1A6891
:4021800080231340DB09DBB2181CBD4680BDC0460400044080B500AF064B1B78002B04D100F00AF8034B01221A7000F045F8BD4680BDC0469901002090B583B000AF1C4B86
:4021C0001B78DAB2FB1D3F218A431A70184BFA1D12780C210A43D2B21A70164B154A1278D2B201210A43D2B21A70FF2000F034F8FF2000F04FF8002000F05CF8002000F015
:4022000069F8BC1D00F099F8031C2370094B094A1278D2B210210A43D2B21A70BB1D1B78181C00F08EF800F027F8BD4603B090BD71000F4091000F4080B500AF054B054AA6
:402240001278D2B2802149420A43D2B21A70BD4680BDC04671000F4080B582B000AF021CFB1D1A70034BFA1D12781A70BD4602B080BDC04601000F4080B500AF01E000F077
:4022800049F800F037F8031C1A1C10231340F6D1BD4680BD80B582B000AF021CFB1D1A70034BFA1D12781A70BD4602B080BDC04641000F4080B582B000AF021CFB1D1A702F
:4022C000034BFA1D12781A70BD4602B080BDC04621000F4080B582B000AF021CFB1D1A70034BFA1D12781A70BD4602B080BDC04681000F4080B582B000AF054AFB1D1278DF
:402300001A70FB1D1B78181CBD4602B080BDC04661000F4080B500AF024B1B78DBB2181CBD4680BD51000F400230800804D0C0460138FDD1C046C0467047EFF3108072B62F
:40234000704780F310887047F7B59C180023071C01910092237008268025207828432070B96800984A6A9047019B984202D22078A8432070013E6D08002EEED12178CFB2C5
:40238000F82F01D9082671422170F7BD70B5051C0E1C00242B789C4208D2A868221C0368311C281CFFF7D0FF0134F3E770BD000038B5051C00242B789C4218D2AA68116894
:4023C000085DC3080F2B00D90F230949D268C85C1055AA680748042B03D9536B211C012202E0536B211C002298470134E3E738BD242B000038020020F0B5051C89B0002629
:402400006B789E4265D2AC68206A815D0291002901D101220292E7692978BB5D00930098884201D30136EBE7A268009F0F21D35DA4690B402849B000049300227B002250DE
:4024400003905818254C0590254819191B18069107933C1C0192009F029AD1198C42E1D2AF68AB88FA68E888115D584300F01EF93968095D00F0CCF8049B1A4958434000FB
:402480005A2802D949084008FAE7BF690A0C039913047B50144F154B8208385514491A55144AC0080F27085517550199012305985A424252069A0798002353524352A96886
:4024C0008B681A191078013407401770019A0232C0E709B0F0BDC0462C020020500200203C0200200000FFFF480200205C0200201802002010020020F0B53E4F4B00DC5B25
:402500009A5A89B0DA53161B3B4F02967D5C9C466C003A4D059467467C5B394E394F735C03946646F55B8768374C0495BD68665C6C5C029D0696059EEF0F0794F4190F273E
:402540003C40EE170194AC1974409C4203D2012B05D0013B00E00133FF263F2B00D89E00274D019F6B540F2F29D0002F24D0B44225D8079C039D26090596141EAC4200D99D
:402580002C1C049FBA4200D23A1C059E09250027B5427F41F5190A2D13D1171B0397039E5F1CB34205D9069FBE089E42BF417E429F1B164B5F5404E0141C019D01E0141CDD
:4025C00000256E4637790C4B66465F540B4F0F23BC530C4C2D01A253826897687E183478234033708068826851180F783D430D7009B0F0BD3C020020100200202C02002052
:402600001802002050020020480200205C020020002934D00123002210B488422CD301242407A14204D2814202D209011B01F8E7E400A14204D2814202D249005B00F8E7AA
:40264000884201D3401A1A434C08A04202D3001B5C0822438C08A04202D3001B9C082243CC08A04202D3001BDC082243002803D01B0901D00909E3E7101C10BC7047002815
:4026800001D00020C04307B4024802A14018029003BDC046D90000000029F0D003B5FFF7B9FF0EBC4243891A1847C046002941D010B4041C4C40A44601230022002900D577
:4026C0004942002800D5404288422CD301242407A14204D2814202D209011B01F8E7E400A14204D2814202D249005B00F8E7884201D3401A1A434C08A04202D3001B5C08CC
:4027000022438C08A04202D3001B9C082243CC08A04202D3001BDC082243002803D01B0901D00909E3E7101C6446002C00D5404210BC7047002806D003DB0020C0434008E7
:4027400001E08020000607B4024802A14018029003BDC046190000000029EBD003B5FFF7A7FF0EBC4243891A1847C0467047C04670B50E4B0E4D0024E81A85101E1CAC4259
:4027800004D0A100725890470134F8E700F0EEF90849094A0E1C541AA5100024AC4204D0A300F05880470134F8E770BD782B0000782B0000782B0000802B000010B50023D2
:4027C000934203D0CC5CC4540133F9E710BD00B58218031C934202D019700133FAE700BD0000000000300F40000400400F40000406000F4056300F4036310F4062320F40C7
:402800003A330F4005400F4005410F4004420F4009430F4002600F400317130523173303802F812D09070C080F011203180D19043004320133013408350236023704401077
:40284000410645D546104702481B49FF4AFF4BFF4DA04F04501852805427580459045A045B045C115D115F01604062C06440654066C068C06AC06CC06EC083039C019D04D3
:40288000A106A402B102B202B301B401B704B880B920BE14C020C106C5D0C620C710C82AC9FFCAFFCBFFCDA0CF04D018D280D425D804D904DA04DB04DC31DD33DF01E04011
:4028C000E2C0E440E540E6C0E8C0EAC0ECC0EEC000400A400B040E011704185119101C041E011F0421202248264027642E02300C3120368038203B403C02400147204808CC
:4029000049014B044F21501856025711580459115A805D045E805F016004670872407340740179047B108340C001C28AC420CA80CC14CE8CD028D224D6DFD824004A01024E
:402940000620084A0C150E6A1434164A184920502D01327033013403360C3702388039203A203F14401345B046BC47E0482E49FF4AFF4BFF4E705004580459045A045B040F
:402980005C325D025F0162C063016501664067018404852A86208714880189018F44900A9210940C95129612974C99109C059D609E1AA560A620A804AA20B018B118B220C1
:4029C000B378B403B506B604B701B882B928BA20BE40BF40C023C504C602C805C9FFCAFFCBFFCD90CF20D004D804D904DA04DB04DC22DD02DF01E298E440E540E641E740D6
:402A000000040120056909880A400D080E0810201208168019A91A401DCC1E082005210422092680272429042F0230203180320838843A103F0240044104458848204D029F
:402A400050405690570259025D805E045F20600186848A018F04A301A680B208B410C0F6C26DC416CA12CC0ECE8ED056D671D808EA10EE8050045A808240D4A0E6805F08E6
:402A80009B08B308B404D6806E0276047A01DC036480668088808E849E04D601D801E004E408100E1101000004000000010101010100000002000000040000000800000019
:402AC0001000000020000000010203040500000000000000000000000000014004000140080001400C000140100001400800044008010440080204400803044008040440A4
:402B000000000440000104400002044000030440000404400000000005000000001000000800000002020204040404080808080808080808D8010020E80100203001002069
:402B4000E0010020D0010020D02A000018010020142B0000182B00007D1500009D12000069100000D114000015150000F8B5C046F8BC08BC9E46704765030000C1080000EE
:402B8000F8B5C046F8BC08BC9E4670473D030000A02B0000C8000020700000003001000000000000000F000F000000000F0F0F0F010101000808080800080008080808080E
:402BC00008080100C0F1FF0F005A6202409C0000280000000000204E1F00000008010440080104400801044008010440080104400000FF0F1E1E1E1E1E000000640000002D
:402C00000100000001000000020202020200000000000000000000000000000000000000000000000000000000000000000000000000000000000000000000000000000088
:402C40000000000000000000000000000000000000000000000000000000000000000000000000000000000000000000000000000000000000000000000000000000000054
:402C80000000000000000000000000000000000000000000000000000000000000000000000000000000000000000000000000000000000000000000000000000000000014
:402CC00000000000000000000000000000000000000000000000000000000000000000000000000000000000000000000000000000000000000000000000000000000000D4
:402D00000000000000000000000000000000000000000000000000000000000000000000000000000000000000000000000000000000000000000000000000000000000093
:0200000490303A
:02000000AEE16F
:0200000490402A
:200000000000000000000000000000000000000000000000000000000000000000000000E0
:0200000490501A
:0C000000000204C81193110104D6C07462
:0200000490600A
:0100000001FE
:00000001FF