:400000000010002029020000250200002502000030B50146424C227B637B03200CE044000419404D2D6864196278440004193D4D2D686419A378401E002806DB4400041919
:40004000384D2D682C5D8C42E9DA374CE261236230BD10B535480068012189040843334908602820FFF7D4FF2D482030407D2E498862052000F04BF92B202B49C862102026
:400080002B490863C006294988604860400B086028482949086010BD70B500BF72B600BF002411E00620604324494518284600F032FD064668792A790002104301463046ED
:4000C00000F06CFC601CC4B2022CEBD31C491D4800F080FC1C481D4988600020C86007201B490860FF20B730886000201949886099200004184908621B200004886217483F
:4001000000780221084315490870084600780621084312490870FFF79CFF00F075FC70BDC0F1FF0FD400002000FF0B4000010B40000202400100008000000240340E000047
:40014000F40C0000DC0C00003303000000000140000204400003044000500F4000700F4000F002F800F031F80CA030C8083824182D18A246671EAB4654465D46AC4201D172
:4001800000F023F87E460F3E0FCCB6460126334200D0FB1AA246AB4633431847A40C0000C40C0000103A02D378C878C1FAD8520701D330C830C101D504680C6070471FB5E4
:4001C000C046C0461FBD10B510BD04488546FFF7F6FF00F04AF800F05CFD00000010002003B4FFF7F0FF03BC00F05AFD70B505460C46164602E00FCC0FC5103E102EFAD22F
:40020000082E02D303CC03C5083E042E07D301CC01C5361F03E021782970641C6D1C761EF9D270BD00BFFEE710B5FFF799FF10BD10B500240AE0042C03D2A0000E49085845
:4002400000E00E48A1000E4A5050641C302CF2D3FFF722FF00200B490860012080070068012108438907086010BDFFF7E1FF00F0DFFB00BFFEE7000000000000250200006E
:4002800000000020C0000020F74880680121C9070843F54988607047F348806840004008F14988607047F04840680121C9070843ED4948607047EC48406840004008EA4930
:4002C0004860704770B5044600F0ABFB0546E6480068C008C000E107C90F0843E2490860284600F0A2FB70BD70B5044600F099FB05466007800ADC4909680722D2049143D3
:400300000843D9490860284600F08FFB70BD10B50446D64909786143084600F079FB10BDFEB5044630200190032C75D3302C73D800F077FB009000270BE0CD48C05DCD49B9
:40034000C96A8906890E884202D1F81C019002E07F1C2E2FF1D300BFC7480078A04203D3C548457886781AE0C348C078A04203D3C1480579467912E0BF488079A04203D399
:40038000BD48C579067A0AE0BB48407AA04203D3B948857AC67A02E0B748057B467B01982B280AD32B2C08D3B148407DB149C862052000F02DFB182001900198844214D992
:4003C000E01EAD494018007CAA4988620846C56106620520FFF79BFFE01EA549085CA549C862052000F014FB13E0E01EA049085CA049C862052000F00BFBE01E9E49401892
:40040000007C9C4988620846C56106620520FFF77EFF009800F009FBFEBD10B500F001FB044691484068C00FC007002801D1FFF73AFF8D48006803218903884340188A4998
:400440000860204600F0F1FA10BD10B500F0E9FA044685484068C00FC007002801D1FFF722FF814800680321890388430121890340187D49086008460068032189038843F7
:400480000121C903401878490860204600F0CDFA10BD014679480069CA00521CD040C007C00F704730B503460C466F484068C00FC007002801D1FFF7F6FE1846FFF7E9FF48
:4004C00000280DD16D48C068DA000321914088430546A007800FD900884005436748C56030BD01466548C068CA00D0408007800F704710B503460C465B484068C00FC00750
:40050000002801D1FFF7CFFE1846FFF7C2FF002808D15A48C068D900891C22468A4010435649C86010BD01465448C068CA00921CD040C007C00F704700B502464A48406870
:40054000C00FC007002801D1FFF7ADFE4B48006910434A49086100BD00B5024642484068C00FC007002801D1FFF79DFE4348006990434249086100BD70B504460020FFF7F5
:4005800088FF06460120FFF784FF06430220FFF780FF06433546002D10D133484068C00FC007002801D1FFF77EFE3448C368344803401846204303463048C36070BD2F4848
:4005C000C0682F49C9430840704770B504460D4625484068C00FC007002801D1FFF763FE8220FFF794FE25488668210125488840314681430E4621012846884030431F49F4
:40060000886070BD10B504460220FFF742FF002813D115484068C00FC007002801D1FFF742FE1648C3681F210906184688430346E006C00803431148C36010BD0F48C06860
:40064000C000C00E704701460C4880680A01D04080B2704701460020002915D0012917D002291CD118E0000000010B40CC000020AE0C000000FF0B40C0F1FF0F00020B40D0
:40068000F7F7FFFFFFFF0000B34A126890B207E0B14A1268100C03E0AF4A506800E000BF00BF7047AC480069AC490840704770B5044600F0B6F90646A9484068C00FC0079C
:4006C000002801D1FFF7EFFDA5480068032189030840884211D10125A14800688843A90340189F49086008460068032189038843E90340189A49086000E0002597480440A7
:40070000954800699549C9430840204392490861012D07D19248006803218903884340188F490860304600F080F970BD00B502468B484068C00FC007002801D1FFF7B3FD85
:40074000854800698749114008438349086100BD854989691E22914342001E231A401143814A916111468969012211437E4A916111468968022211437B4A916070477A48BA
:40078000806802218843784988600846806940084000886170477448406802210840704702207149486070470146192211406F4A126819231A4010466C4A116070476C4915
:4007C000086849176A4A11607047694980390860704710B5024601235B07940018599400195110BD01460122520788001058704710B5024601235B0714461034A4001859B0
:4008000014461034A400195110BD01460122520708461030800010587047F8B504460E46A007C00E871D00F0FCF80090A00880005049401805680320B840294681430D4650
:400840003046B8400543A00880004A4940180560009800F0EAF8F8BD014688088000454BC01800688B07DB0E9B1DD840C2B29007800F7047C206D20E012191403C4A803A8D
:400880001160704701463A4880380068CB06DB0E01229A401040002801D0012070470020FCE7C206D20E01219140314A11607047C206D20E012191402D4A80321160704722
:4008C000C206D20E012191402B4A1160704700BE70472A48C06880B229494018042108432649C860704710B5044606E02548006800F08EF80120C003241A0120C0038442EB
:40090000F4D8214909686143084600F081F810BD10B50446002C02D01C48046002E01C481A4908601B49194800684A1E801800F003F9194908707D21C900144800684A1E7C
:40094000801800F0F9F81049086008460068C0030C49086010BD000000020B400404040000010B400808080000000B4000030B4080E100E000E400E080E200E000ED00E0D0
:400980000000FA05D0000020C8000020C4000020005A620240420F00CC00002070B504460D462946204600F0B2F870BD70B504460D46164632462946204600F04BF870BD18
:4009C00070B504460D46164632462946204600F041F870BDF0B504460022002011E08600A359DDB21B0A1B0208E05600761876785700CF5DDE55521C6E1EF5B2002DF4D1BE
:400A0000401C0628EBD3F0BD7047000000000000801C800804D000BF401EFDD100BF00BF7047EFF3108072B6704780F31088704700BF002000E0401C4028FCDB0521044A11
:400A4000D1741121D1740521D1741121D174F0E740000F40F8B5042A2CD3830712D00B78491C0370401C521E83070BD00B78491C0370401C521E830704D00B78491C0370C0
:400A8000401C521E8B079B0F05D0C91ADF002023DE1B08C90AE0FFF7A9FBF8BD1D4608C9FD401C46B4402C4310C0121F042AF5D2F308C91A521EF0D40B78491C0370401C5C
:400AC000521EEAD40B78491C0370401C012AE4D409780170F8BD01E004C0091F0429FBD28B0701D50280801CC90700D00270704700290BD0C30702D00270401C491E022971
:400B000004D3830702D50280801C891EE3E70022EEE70022DFE70378C2781946437812061B0219438378C0781B04194311430902090A000608437047002203098B422CD38D
:400B4000030A8B4211D300239C464EE003460B433CD4002243088B4231D303098B421CD3030A8B4201D394463FE0C3098B4201D3CB01C01A524183098B4201D38B01C01AF7
:400B8000524143098B4201D34B01C01A524103098B4201D30B01C01A5241C3088B4201D3CB00C01A524183088B4201D38B00C01A524143088B4201D34B00C01A5241411A0F
:400BC00000D201465241104670475DE0CA0F00D04942031000D34042534000229C4603098B422DD3030A8B4212D3FC22890112BA030A8B420CD3890192118B4208D38901A8
:400C000092118B4204D389013AD0921100E08909C3098B4201D3CB01C01A524183098B4201D38B01C01A524143098B4201D34B01C01A524103098B4201D30B01C01A52412C
:400C4000C3088B4201D3CB00C01A524183088B4201D38B00C01A5241D9D243088B4201D34B00C01A5241411A00D20146634652415B10104601D34042002B00D54942704754
:400C800063465B1000D3404201B50020C046C04602BD0446C046C0462046FFF7A1FA000001491820ABBEFEE7260002007047030405060708090A0B0C0E0F10111213141557
:400CC000161718191B1C1D1E1F2021222325262728292A2B2E2F30313233343502000F405C320F4036330F4004420F4006430F4002600F402317330108130A0C0C140D0249
:400D00000E0810041102150117021806190224022501260D270228042E01301834073503380239204032450C480149FF4AFF4BFF4E705004580459045A045F0162C06301C7
:400D40006501664067018014822884188624878289058C028D438F8C90019340951097209A039B309D08A120A220A401A510A602A901ABCEAC04AD20B003B1C0B20CB330B4
:400D8000B430B70FB820BA02BB08C021C520C6D0C744C83AC9FFCAFFCBFFCD90D004D804D904DA04DF01E2B0E440E540E641E74000450440051009200A400E400F08108295
:400DC0001308160417A8180419201A401B091C401D311F2020012140220123A0270C29212A042B012F20308031203201330435013728382839803E4040054520470848805D
:400E00004F08501680108F089580B540C0CDC25AC4EDCA4FCCEFCE1ED06CE00455215B20D403D60481208D01A521B720E008EC080101100100300F40000400400F40000417
:400E4000600E000000000020C0000000A4010000200F0000C400002014000000A40100000000000000000000000000000000000000000000000000000000000000000000B3
:400E80000000000000000000000000000000000000000000000000000000000000000000000000000000000000000000000000000000000000000000000000000000000032
:400EC00000000000000000000000000000000000000000000000000000000000000000000000000000000000000000000000000000000000000000000000000000000000F2
:400F00000000000000000000000000000000000000000000000000000000000000000000005A6202409C0000280000000000204EC0F1FF0F000000000000000000000000C2
:400F40000000000000000000000000000000000000000000000000000000000000000000000000000000000000000000000000000000000000000000000000000000000071
:400F80000000000000000000000000000000000000000000000000000000000000000000000000000000000000000000000000000000000000000000000000000000000031
:400FC00000000000000000000000000000000000000000000000000000000000000000000000000000000000000000000000000000000000000000000000000000000000F1
:4010000000000000000000000000000000000000000000000000000000000000000000000000000000000000000000000000000000000000000000000000000000000000B0
:0200000490303A
:02000000C8C96D
:0200000490402A
:200000000000000000000000000000000000000000000000000000000000000000000000E0
:0200000490501A
:0C000000000204C81193110004CCDA5C6B
:0200000490600A
:0100000001FE
:00000001FF